{
  "_format": "hh-sol-artifact-1",
  "contractName": "HealthBk",
  "sourceName": "contracts/Health.sol",
  "abi": [
    {
      "inputs": [
        {
          "internalType": "address",
          "name": "_address",
          "type": "address"
        },
        {
          "internalType": "string",
          "name": "index",
          "type": "string"
        }
      ],
      "name": "approveAccess",
      "outputs": [],
      "stateMutability": "nonpayable",
      "type": "function"
    },
    {
      "inputs": [
        {
          "internalType": "string",
          "name": "index",
          "type": "string"
        }
      ],
      "name": "canAccess",
      "outputs": [
        {
          "internalType": "bool",
          "name": "",
          "type": "bool"
        }
      ],
      "stateMutability": "view",
      "type": "function"
    },
    {
      "inputs": [],
      "name": "getAllFiles",
      "outputs": [
        {
          "components": [
            {
              "internalType": "string",
              "name": "fileCid",
              "type": "string"
            },
            {
              "internalType": "string",
              "name": "fileName",
              "type": "string"
            },
            {
              "internalType": "string",
              "name": "createdAt",
              "type": "string"
            },
            {
              "internalType": "string",
              "name": "fileSize",
              "type": "string"
            },
            {
              "internalType": "string",
              "name": "fileType",
              "type": "string"
            },
            {
              "internalType": "address[]",
              "name": "approvals",
              "type": "address[]"
            }
          ],
          "internalType": "struct HealthBk.file[]",
          "name": "",
          "type": "tuple[]"
        }
      ],
      "stateMutability": "view",
      "type": "function"
    },
    {
      "inputs": [
        {
          "internalType": "string",
          "name": "index",
          "type": "string"
        }
      ],
      "name": "getApprovals",
      "outputs": [
        {
          "internalType": "address[]",
          "name": "",
          "type": "address[]"
        }
      ],
      "stateMutability": "view",
      "type": "function"
    },
    {
      "inputs": [
        {
          "internalType": "string",
          "name": "index",
          "type": "string"
        }
      ],
      "name": "getFile",
      "outputs": [
        {
          "components": [
            {
              "internalType": "string",
              "name": "fileCid",
              "type": "string"
            },
            {
              "internalType": "string",
              "name": "fileName",
              "type": "string"
            },
            {
              "internalType": "string",
              "name": "createdAt",
              "type": "string"
            },
            {
              "internalType": "string",
              "name": "fileSize",
              "type": "string"
            },
            {
              "internalType": "string",
              "name": "fileType",
              "type": "string"
            },
            {
              "internalType": "address[]",
              "name": "approvals",
              "type": "address[]"
            }
          ],
          "internalType": "struct HealthBk.file",
          "name": "",
          "type": "tuple"
        }
      ],
      "stateMutability": "view",
      "type": "function"
    },
    {
      "inputs": [
        {
          "internalType": "string",
          "name": "_hash",
          "type": "string"
        },
        {
          "internalType": "string",
          "name": "_name",
          "type": "string"
        },
        {
          "internalType": "string",
          "name": "_size",
          "type": "string"
        },
        {
          "internalType": "string",
          "name": "_type",
          "type": "string"
        },
        {
          "internalType": "string",
          "name": "_timestamp",
          "type": "string"
        }
      ],
      "name": "uploadFile",
      "outputs": [],
      "stateMutability": "nonpayable",
      "type": "function"
    }
  ],
  "bytecode": "0x60806040526000805534801561001457600080fd5b50611e96806100246000396000f3fe608060405234801561001057600080fd5b50600436106100625760003560e01c80637c8b397a14610067578063e0876aa814610097578063e3931154146100c7578063e4ecb7dd146100f7578063ef8b383914610113578063ff24b5d51461012f575b600080fd5b610081600480360381019061007c91906110bc565b61014d565b60405161008e91906111f9565b60405180910390f35b6100b160048036038101906100ac919061135c565b6101ff565b6040516100be919061153f565b60405180910390f35b6100e160048036038101906100dc91906110bc565b61059f565b6040516100ee919061157c565b60405180910390f35b610111600480360381019061010c91906115c3565b6106c3565b005b61012d6004803603810190610128919061161f565b610749565b005b610137610a50565b60405161014491906118aa565b60405180910390f35b6060600283836040516101619291906118fc565b90815260200160405180910390206005018054806020026020016040519081016040528092919081815260200182805480156101f257602002820191906000526020600020905b8160009054906101000a900473ffffffffffffffffffffffffffffffffffffffff1673ffffffffffffffffffffffffffffffffffffffff16815260200190600101908083116101a8575b5050505050905092915050565b610207610f66565b6002826040516102179190611946565b90815260200160405180910390206040518060c00160405290816000820180546102409061198c565b80601f016020809104026020016040519081016040528092919081815260200182805461026c9061198c565b80156102b95780601f1061028e576101008083540402835291602001916102b9565b820191906000526020600020905b81548152906001019060200180831161029c57829003601f168201915b505050505081526020016001820180546102d29061198c565b80601f01602080910402602001604051908101604052809291908181526020018280546102fe9061198c565b801561034b5780601f106103205761010080835404028352916020019161034b565b820191906000526020600020905b81548152906001019060200180831161032e57829003601f168201915b505050505081526020016002820180546103649061198c565b80601f01602080910402602001604051908101604052809291908181526020018280546103909061198c565b80156103dd5780601f106103b2576101008083540402835291602001916103dd565b820191906000526020600020905b8154815290600101906020018083116103c057829003601f168201915b505050505081526020016003820180546103f69061198c565b80601f01602080910402602001604051908101604052809291908181526020018280546104229061198c565b801561046f5780601f106104445761010080835404028352916020019161046f565b820191906000526020600020905b81548152906001019060200180831161045257829003601f168201915b505050505081526020016004820180546104889061198c565b80601f01602080910402602001604051908101604052809291908181526020018280546104b49061198c565b80156105015780601f106104d657610100808354040283529160200191610501565b820191906000526020600020905b8154815290600101906020018083116104e457829003601f168201915b505050505081526020016005820180548060200260200160405190810160405280929190818152602001828054801561058f57602002820191906000526020600020905b8160009054906101000a900473ffffffffffffffffffffffffffffffffffffffff1673ffffffffffffffffffffffffffffffffffffffff1681526020019060010190808311610545575b5050505050815250509050919050565b600080600284846040516105b49291906118fc565b908152602001604051809103902060050180549050036105d757600090506106bd565b60005b600284846040516105ec9291906118fc565b9081526020016040518091039020600501805490508110156106b7573373ffffffffffffffffffffffffffffffffffffffff16600285856040516106319291906118fc565b90815260200160405180910390206005018281548110610654576106536119bd565b5b9060005260206000200160009054906101000a900473ffffffffffffffffffffffffffffffffffffffff1673ffffffffffffffffffffffffffffffffffffffff16036106a45760019150506106bd565b80806106af90611a25565b9150506105da565b50600090505b92915050565b6002816040516106d39190611946565b9081526020016040518091039020600501829080600181540180825580915050600190039060005260206000200160009091909190916101000a81548173ffffffffffffffffffffffffffffffffffffffff021916908373ffffffffffffffffffffffffffffffffffffffff1602179055505050565b60008067ffffffffffffffff81111561076557610764611231565b5b6040519080825280602002602001820160405280156107935781602001602082028036833780820191505090505b5090506040518060c001604052808c8c8080601f016020809104026020016040519081016040528093929190818152602001838380828437600081840152601f19601f8201169050808301925050505050505081526020018a8a8080601f016020809104026020016040519081016040528093929190818152602001838380828437600081840152601f19601f82011690508083019250505050505050815260200184848080601f016020809104026020016040519081016040528093929190818152602001838380828437600081840152601f19601f82011690508083019250505050505050815260200188888080601f016020809104026020016040519081016040528093929190818152602001838380828437600081840152601f19601f82011690508083019250505050505050815260200186868080601f016020809104026020016040519081016040528093929190818152602001838380828437600081840152601f19601f8201169050808301925050505050505081526020018281525060028c8c6040516109299291906118fc565b9081526020016040518091039020600082015181600001908161094c9190611c19565b5060208201518160010190816109629190611c19565b5060408201518160020190816109789190611c19565b50606082015181600301908161098e9190611c19565b5060808201518160040190816109a49190611c19565b5060a08201518160050190805190602001906109c1929190610f9c565b50905050600160003373ffffffffffffffffffffffffffffffffffffffff1673ffffffffffffffffffffffffffffffffffffffff1681526020019081526020016000206000018b8b90918060018154018082558091505060019003906000526020600020016000909192909192909192909192509182610a42929190611cf6565b505050505050505050505050565b60606000600160003373ffffffffffffffffffffffffffffffffffffffff1673ffffffffffffffffffffffffffffffffffffffff1681526020019081526020016000206000018054905067ffffffffffffffff811115610ab357610ab2611231565b5b604051908082528060200260200182016040528015610aec57816020015b610ad9610f66565b815260200190600190039081610ad15790505b50905060005b600160003373ffffffffffffffffffffffffffffffffffffffff1673ffffffffffffffffffffffffffffffffffffffff16815260200190815260200160002060000180549050811015610f5e576002600160003373ffffffffffffffffffffffffffffffffffffffff1673ffffffffffffffffffffffffffffffffffffffff1681526020019081526020016000206000018281548110610b9557610b946119bd565b5b90600052602060002001604051610bac9190611e49565b90815260200160405180910390206040518060c0016040529081600082018054610bd59061198c565b80601f0160208091040260200160405190810160405280929190818152602001828054610c019061198c565b8015610c4e5780601f10610c2357610100808354040283529160200191610c4e565b820191906000526020600020905b815481529060010190602001808311610c3157829003601f168201915b50505050508152602001600182018054610c679061198c565b80601f0160208091040260200160405190810160405280929190818152602001828054610c939061198c565b8015610ce05780601f10610cb557610100808354040283529160200191610ce0565b820191906000526020600020905b815481529060010190602001808311610cc357829003601f168201915b50505050508152602001600282018054610cf99061198c565b80601f0160208091040260200160405190810160405280929190818152602001828054610d259061198c565b8015610d725780601f10610d4757610100808354040283529160200191610d72565b820191906000526020600020905b815481529060010190602001808311610d5557829003601f168201915b50505050508152602001600382018054610d8b9061198c565b80601f0160208091040260200160405190810160405280929190818152602001828054610db79061198c565b8015610e045780601f10610dd957610100808354040283529160200191610e04565b820191906000526020600020905b815481529060010190602001808311610de757829003601f168201915b50505050508152602001600482018054610e1d9061198c565b80601f0160208091040260200160405190810160405280929190818152602001828054610e499061198c565b8015610e965780601f10610e6b57610100808354040283529160200191610e96565b820191906000526020600020905b815481529060010190602001808311610e7957829003601f168201915b5050505050815260200160058201805480602002602001604051908101604052809291908181526020018280548015610f2457602002820191906000526020600020905b8160009054906101000a900473ffffffffffffffffffffffffffffffffffffffff1673ffffffffffffffffffffffffffffffffffffffff1681526020019060010190808311610eda575b505050505081525050828281518110610f4057610f3f6119bd565b5b60200260200101819052508080610f5690611a25565b915050610af2565b508091505090565b6040518060c001604052806060815260200160608152602001606081526020016060815260200160608152602001606081525090565b828054828255906000526020600020908101928215611015579160200282015b828111156110145782518260006101000a81548173ffffffffffffffffffffffffffffffffffffffff021916908373ffffffffffffffffffffffffffffffffffffffff16021790555091602001919060010190610fbc565b5b5090506110229190611026565b5090565b5b8082111561103f576000816000905550600101611027565b5090565b6000604051905090565b600080fd5b600080fd5b600080fd5b600080fd5b600080fd5b60008083601f84011261107c5761107b611057565b5b8235905067ffffffffffffffff8111156110995761109861105c565b5b6020830191508360018202830111156110b5576110b4611061565b5b9250929050565b600080602083850312156110d3576110d261104d565b5b600083013567ffffffffffffffff8111156110f1576110f0611052565b5b6110fd85828601611066565b92509250509250929050565b600081519050919050565b600082825260208201905092915050565b6000819050602082019050919050565b600073ffffffffffffffffffffffffffffffffffffffff82169050919050565b600061116082611135565b9050919050565b61117081611155565b82525050565b60006111828383611167565b60208301905092915050565b6000602082019050919050565b60006111a682611109565b6111b08185611114565b93506111bb83611125565b8060005b838110156111ec5781516111d38882611176565b97506111de8361118e565b9250506001810190506111bf565b5085935050505092915050565b60006020820190508181036000830152611213818461119b565b905092915050565b600080fd5b6000601f19601f8301169050919050565b7f4e487b7100000000000000000000000000000000000000000000000000000000600052604160045260246000fd5b61126982611220565b810181811067ffffffffffffffff8211171561128857611287611231565b5b80604052505050565b600061129b611043565b90506112a78282611260565b919050565b600067ffffffffffffffff8211156112c7576112c6611231565b5b6112d082611220565b9050602081019050919050565b82818337600083830152505050565b60006112ff6112fa846112ac565b611291565b90508281526020810184848401111561131b5761131a61121b565b5b6113268482856112dd565b509392505050565b600082601f83011261134357611342611057565b5b81356113538482602086016112ec565b91505092915050565b6000602082840312156113725761137161104d565b5b600082013567ffffffffffffffff8111156113905761138f611052565b5b61139c8482850161132e565b91505092915050565b600081519050919050565b600082825260208201905092915050565b60005b838110156113df5780820151818401526020810190506113c4565b60008484015250505050565b60006113f6826113a5565b61140081856113b0565b93506114108185602086016113c1565b61141981611220565b840191505092915050565b600082825260208201905092915050565b600061144082611109565b61144a8185611424565b935061145583611125565b8060005b8381101561148657815161146d8882611176565b97506114788361118e565b925050600181019050611459565b5085935050505092915050565b600060c08301600083015184820360008601526114b082826113eb565b915050602083015184820360208601526114ca82826113eb565b915050604083015184820360408601526114e482826113eb565b915050606083015184820360608601526114fe82826113eb565b9150506080830151848203608086015261151882826113eb565b91505060a083015184820360a08601526115328282611435565b9150508091505092915050565b600060208201905081810360008301526115598184611493565b905092915050565b60008115159050919050565b61157681611561565b82525050565b6000602082019050611591600083018461156d565b92915050565b6115a081611155565b81146115ab57600080fd5b50565b6000813590506115bd81611597565b92915050565b600080604083850312156115da576115d961104d565b5b60006115e8858286016115ae565b925050602083013567ffffffffffffffff81111561160957611608611052565b5b6116158582860161132e565b9150509250929050565b60008060008060008060008060008060a08b8d0312156116425761164161104d565b5b60008b013567ffffffffffffffff8111156116605761165f611052565b5b61166c8d828e01611066565b9a509a505060208b013567ffffffffffffffff81111561168f5761168e611052565b5b61169b8d828e01611066565b985098505060408b013567ffffffffffffffff8111156116be576116bd611052565b5b6116ca8d828e01611066565b965096505060608b013567ffffffffffffffff8111156116ed576116ec611052565b5b6116f98d828e01611066565b945094505060808b013567ffffffffffffffff81111561171c5761171b611052565b5b6117288d828e01611066565b92509250509295989b9194979a5092959850565b600081519050919050565b600082825260208201905092915050565b6000819050602082019050919050565b600060c083016000830151848203600086015261178582826113eb565b9150506020830151848203602086015261179f82826113eb565b915050604083015184820360408601526117b982826113eb565b915050606083015184820360608601526117d382826113eb565b915050608083015184820360808601526117ed82826113eb565b91505060a083015184820360a08601526118078282611435565b9150508091505092915050565b60006118208383611768565b905092915050565b6000602082019050919050565b60006118408261173c565b61184a8185611747565b93508360208202850161185c85611758565b8060005b8581101561189857848403895281516118798582611814565b945061188483611828565b925060208a01995050600181019050611860565b50829750879550505050505092915050565b600060208201905081810360008301526118c48184611835565b905092915050565b600081905092915050565b60006118e383856118cc565b93506118f08385846112dd565b82840190509392505050565b60006119098284866118d7565b91508190509392505050565b6000611920826113a5565b61192a81856118cc565b935061193a8185602086016113c1565b80840191505092915050565b60006119528284611915565b915081905092915050565b7f4e487b7100000000000000000000000000000000000000000000000000000000600052602260045260246000fd5b600060028204905060018216806119a457607f821691505b6020821081036119b7576119b661195d565b5b50919050565b7f4e487b7100000000000000000000000000000000000000000000000000000000600052603260045260246000fd5b7f4e487b7100000000000000000000000000000000000000000000000000000000600052601160045260246000fd5b6000819050919050565b6000611a3082611a1b565b91507fffffffffffffffffffffffffffffffffffffffffffffffffffffffffffffffff8203611a6257611a616119ec565b5b600182019050919050565b60008190508160005260206000209050919050565b60006020601f8301049050919050565b600082821b905092915050565b600060088302611acf7fffffffffffffffffffffffffffffffffffffffffffffffffffffffffffffffff82611a92565b611ad98683611a92565b95508019841693508086168417925050509392505050565b6000819050919050565b6000611b16611b11611b0c84611a1b565b611af1565b611a1b565b9050919050565b6000819050919050565b611b3083611afb565b611b44611b3c82611b1d565b848454611a9f565b825550505050565b600090565b611b59611b4c565b611b64818484611b27565b505050565b5b81811015611b8857611b7d600082611b51565b600181019050611b6a565b5050565b601f821115611bcd57611b9e81611a6d565b611ba784611a82565b81016020851015611bb6578190505b611bca611bc285611a82565b830182611b69565b50505b505050565b600082821c905092915050565b6000611bf060001984600802611bd2565b1980831691505092915050565b6000611c098383611bdf565b9150826002028217905092915050565b611c22826113a5565b67ffffffffffffffff811115611c3b57611c3a611231565b5b611c45825461198c565b611c50828285611b8c565b600060209050601f831160018114611c835760008415611c71578287015190505b611c7b8582611bfd565b865550611ce3565b601f198416611c9186611a6d565b60005b82811015611cb957848901518255600182019150602085019450602081019050611c94565b86831015611cd65784890151611cd2601f891682611bdf565b8355505b6001600288020188555050505b505050505050565b600082905092915050565b611d008383611ceb565b67ffffffffffffffff811115611d1957611d18611231565b5b611d23825461198c565b611d2e828285611b8c565b6000601f831160018114611d5d5760008415611d4b578287013590505b611d558582611bfd565b865550611dbd565b601f198416611d6b86611a6d565b60005b82811015611d9357848901358255600182019150602085019450602081019050611d6e565b86831015611db05784890135611dac601f891682611bdf565b8355505b6001600288020188555050505b50505050505050565b60008154611dd38161198c565b611ddd81866118cc565b94506001821660008114611df85760018114611e0d57611e40565b60ff1983168652811515820286019350611e40565b611e1685611a6d565b60005b83811015611e3857815481890152600182019150602081019050611e19565b838801955050505b50505092915050565b6000611e558284611dc6565b91508190509291505056fea264697066735822122006500a6b5f2b81569f6f382b1ff2cd31141f0a1ea9afc8819d43e060443d16c264736f6c63430008110033",
  "linkReferences": {},
  "deployedLinkReferences": {}
}