{
  "_format": "hh-sol-artifact-1",
  "contractName": "D_Storage",
  "sourceName": "contracts/D-Storage.sol",
  "abi": [
    {
      "inputs": [
        {
          "internalType": "address",
          "name": "_address",
          "type": "address"
        },
        {
          "internalType": "string",
          "name": "index",
          "type": "string"
        }
      ],
      "name": "approveAccess",
      "outputs": [],
      "stateMutability": "nonpayable",
      "type": "function"
    },
    {
      "inputs": [
        {
          "internalType": "string",
          "name": "index",
          "type": "string"
        }
      ],
      "name": "canAccess",
      "outputs": [
        {
          "internalType": "bool",
          "name": "",
          "type": "bool"
        }
      ],
      "stateMutability": "view",
      "type": "function"
    },
    {
      "inputs": [],
      "name": "getAllFiles",
      "outputs": [
        {
          "components": [
            {
              "internalType": "string",
              "name": "fileCid",
              "type": "string"
            },
            {
              "internalType": "string",
              "name": "fileName",
              "type": "string"
            },
            {
              "internalType": "string",
              "name": "createdAt",
              "type": "string"
            },
            {
              "internalType": "string",
              "name": "fileSize",
              "type": "string"
            },
            {
              "internalType": "string",
              "name": "fileType",
              "type": "string"
            },
            {
              "internalType": "address[]",
              "name": "approvals",
              "type": "address[]"
            }
          ],
          "internalType": "struct D_Storage.file[]",
          "name": "",
          "type": "tuple[]"
        }
      ],
      "stateMutability": "view",
      "type": "function"
    },
    {
      "inputs": [
        {
          "internalType": "string",
          "name": "index",
          "type": "string"
        }
      ],
      "name": "getApprovals",
      "outputs": [
        {
          "internalType": "address[]",
          "name": "",
          "type": "address[]"
        }
      ],
      "stateMutability": "view",
      "type": "function"
    },
    {
      "inputs": [
        {
          "internalType": "string",
          "name": "index",
          "type": "string"
        }
      ],
      "name": "getFile",
      "outputs": [
        {
          "components": [
            {
              "internalType": "string",
              "name": "fileCid",
              "type": "string"
            },
            {
              "internalType": "string",
              "name": "fileName",
              "type": "string"
            },
            {
              "internalType": "string",
              "name": "createdAt",
              "type": "string"
            },
            {
              "internalType": "string",
              "name": "fileSize",
              "type": "string"
            },
            {
              "internalType": "string",
              "name": "fileType",
              "type": "string"
            },
            {
              "internalType": "address[]",
              "name": "approvals",
              "type": "address[]"
            }
          ],
          "internalType": "struct D_Storage.file",
          "name": "",
          "type": "tuple"
        }
      ],
      "stateMutability": "view",
      "type": "function"
    },
    {
      "inputs": [
        {
          "internalType": "string",
          "name": "_hash",
          "type": "string"
        },
        {
          "internalType": "string",
          "name": "_name",
          "type": "string"
        },
        {
          "internalType": "string",
          "name": "_size",
          "type": "string"
        },
        {
          "internalType": "string",
          "name": "_type",
          "type": "string"
        },
        {
          "internalType": "string",
          "name": "_timestamp",
          "type": "string"
        }
      ],
      "name": "uploadFile",
      "outputs": [],
      "stateMutability": "nonpayable",
      "type": "function"
    }
  ],
  "bytecode": "0x60806040526000805534801561001457600080fd5b50611db5806100246000396000f3fe608060405234801561001057600080fd5b50600436106100625760003560e01c80637c8b397a14610067578063e0876aa814610097578063e3931154146100c7578063e4ecb7dd146100f7578063ef8b383914610113578063ff24b5d51461012f575b600080fd5b610081600480360381019061007c9190610fdb565b61014d565b60405161008e9190611118565b60405180910390f35b6100b160048036038101906100ac919061127b565b6101ff565b6040516100be919061145e565b60405180910390f35b6100e160048036038101906100dc9190610fdb565b61059f565b6040516100ee919061149b565b60405180910390f35b610111600480360381019061010c91906114e2565b6105e2565b005b61012d6004803603810190610128919061153e565b610668565b005b61013761096f565b60405161014491906117c9565b60405180910390f35b60606002838360405161016192919061181b565b90815260200160405180910390206005018054806020026020016040519081016040528092919081815260200182805480156101f257602002820191906000526020600020905b8160009054906101000a900473ffffffffffffffffffffffffffffffffffffffff1673ffffffffffffffffffffffffffffffffffffffff16815260200190600101908083116101a8575b5050505050905092915050565b610207610e85565b6002826040516102179190611865565b90815260200160405180910390206040518060c0016040529081600082018054610240906118ab565b80601f016020809104026020016040519081016040528092919081815260200182805461026c906118ab565b80156102b95780601f1061028e576101008083540402835291602001916102b9565b820191906000526020600020905b81548152906001019060200180831161029c57829003601f168201915b505050505081526020016001820180546102d2906118ab565b80601f01602080910402602001604051908101604052809291908181526020018280546102fe906118ab565b801561034b5780601f106103205761010080835404028352916020019161034b565b820191906000526020600020905b81548152906001019060200180831161032e57829003601f168201915b50505050508152602001600282018054610364906118ab565b80601f0160208091040260200160405190810160405280929190818152602001828054610390906118ab565b80156103dd5780601f106103b2576101008083540402835291602001916103dd565b820191906000526020600020905b8154815290600101906020018083116103c057829003601f168201915b505050505081526020016003820180546103f6906118ab565b80601f0160208091040260200160405190810160405280929190818152602001828054610422906118ab565b801561046f5780601f106104445761010080835404028352916020019161046f565b820191906000526020600020905b81548152906001019060200180831161045257829003601f168201915b50505050508152602001600482018054610488906118ab565b80601f01602080910402602001604051908101604052809291908181526020018280546104b4906118ab565b80156105015780601f106104d657610100808354040283529160200191610501565b820191906000526020600020905b8154815290600101906020018083116104e457829003601f168201915b505050505081526020016005820180548060200260200160405190810160405280929190818152602001828054801561058f57602002820191906000526020600020905b8160009054906101000a900473ffffffffffffffffffffffffffffffffffffffff1673ffffffffffffffffffffffffffffffffffffffff1681526020019060010190808311610545575b5050505050815250509050919050565b600080600284846040516105b492919061181b565b908152602001604051809103902060050180549050036105d757600090506105dc565b600190505b92915050565b6002816040516105f29190611865565b9081526020016040518091039020600501829080600181540180825580915050600190039060005260206000200160009091909190916101000a81548173ffffffffffffffffffffffffffffffffffffffff021916908373ffffffffffffffffffffffffffffffffffffffff1602179055505050565b60008067ffffffffffffffff81111561068457610683611150565b5b6040519080825280602002602001820160405280156106b25781602001602082028036833780820191505090505b5090506040518060c001604052808c8c8080601f016020809104026020016040519081016040528093929190818152602001838380828437600081840152601f19601f8201169050808301925050505050505081526020018a8a8080601f016020809104026020016040519081016040528093929190818152602001838380828437600081840152601f19601f82011690508083019250505050505050815260200184848080601f016020809104026020016040519081016040528093929190818152602001838380828437600081840152601f19601f82011690508083019250505050505050815260200188888080601f016020809104026020016040519081016040528093929190818152602001838380828437600081840152601f19601f82011690508083019250505050505050815260200186868080601f016020809104026020016040519081016040528093929190818152602001838380828437600081840152601f19601f8201169050808301925050505050505081526020018281525060028c8c60405161084892919061181b565b9081526020016040518091039020600082015181600001908161086b9190611a92565b5060208201518160010190816108819190611a92565b5060408201518160020190816108979190611a92565b5060608201518160030190816108ad9190611a92565b5060808201518160040190816108c39190611a92565b5060a08201518160050190805190602001906108e0929190610ebb565b50905050600160003373ffffffffffffffffffffffffffffffffffffffff1673ffffffffffffffffffffffffffffffffffffffff1681526020019081526020016000206000018b8b90918060018154018082558091505060019003906000526020600020016000909192909192909192909192509182610961929190611b6f565b505050505050505050505050565b60606000600160003373ffffffffffffffffffffffffffffffffffffffff1673ffffffffffffffffffffffffffffffffffffffff1681526020019081526020016000206000018054905067ffffffffffffffff8111156109d2576109d1611150565b5b604051908082528060200260200182016040528015610a0b57816020015b6109f8610e85565b8152602001906001900390816109f05790505b50905060005b600160003373ffffffffffffffffffffffffffffffffffffffff1673ffffffffffffffffffffffffffffffffffffffff16815260200190815260200160002060000180549050811015610e7d576002600160003373ffffffffffffffffffffffffffffffffffffffff1673ffffffffffffffffffffffffffffffffffffffff1681526020019081526020016000206000018281548110610ab457610ab3611c3f565b5b90600052602060002001604051610acb9190611cf1565b90815260200160405180910390206040518060c0016040529081600082018054610af4906118ab565b80601f0160208091040260200160405190810160405280929190818152602001828054610b20906118ab565b8015610b6d5780601f10610b4257610100808354040283529160200191610b6d565b820191906000526020600020905b815481529060010190602001808311610b5057829003601f168201915b50505050508152602001600182018054610b86906118ab565b80601f0160208091040260200160405190810160405280929190818152602001828054610bb2906118ab565b8015610bff5780601f10610bd457610100808354040283529160200191610bff565b820191906000526020600020905b815481529060010190602001808311610be257829003601f168201915b50505050508152602001600282018054610c18906118ab565b80601f0160208091040260200160405190810160405280929190818152602001828054610c44906118ab565b8015610c915780601f10610c6657610100808354040283529160200191610c91565b820191906000526020600020905b815481529060010190602001808311610c7457829003601f168201915b50505050508152602001600382018054610caa906118ab565b80601f0160208091040260200160405190810160405280929190818152602001828054610cd6906118ab565b8015610d235780601f10610cf857610100808354040283529160200191610d23565b820191906000526020600020905b815481529060010190602001808311610d0657829003601f168201915b50505050508152602001600482018054610d3c906118ab565b80601f0160208091040260200160405190810160405280929190818152602001828054610d68906118ab565b8015610db55780601f10610d8a57610100808354040283529160200191610db5565b820191906000526020600020905b815481529060010190602001808311610d9857829003601f168201915b5050505050815260200160058201805480602002602001604051908101604052809291908181526020018280548015610e4357602002820191906000526020600020905b8160009054906101000a900473ffffffffffffffffffffffffffffffffffffffff1673ffffffffffffffffffffffffffffffffffffffff1681526020019060010190808311610df9575b505050505081525050828281518110610e5f57610e5e611c3f565b5b60200260200101819052508080610e7590611d37565b915050610a11565b508091505090565b6040518060c001604052806060815260200160608152602001606081526020016060815260200160608152602001606081525090565b828054828255906000526020600020908101928215610f34579160200282015b82811115610f335782518260006101000a81548173ffffffffffffffffffffffffffffffffffffffff021916908373ffffffffffffffffffffffffffffffffffffffff16021790555091602001919060010190610edb565b5b509050610f419190610f45565b5090565b5b80821115610f5e576000816000905550600101610f46565b5090565b6000604051905090565b600080fd5b600080fd5b600080fd5b600080fd5b600080fd5b60008083601f840112610f9b57610f9a610f76565b5b8235905067ffffffffffffffff811115610fb857610fb7610f7b565b5b602083019150836001820283011115610fd457610fd3610f80565b5b9250929050565b60008060208385031215610ff257610ff1610f6c565b5b600083013567ffffffffffffffff8111156110105761100f610f71565b5b61101c85828601610f85565b92509250509250929050565b600081519050919050565b600082825260208201905092915050565b6000819050602082019050919050565b600073ffffffffffffffffffffffffffffffffffffffff82169050919050565b600061107f82611054565b9050919050565b61108f81611074565b82525050565b60006110a18383611086565b60208301905092915050565b6000602082019050919050565b60006110c582611028565b6110cf8185611033565b93506110da83611044565b8060005b8381101561110b5781516110f28882611095565b97506110fd836110ad565b9250506001810190506110de565b5085935050505092915050565b6000602082019050818103600083015261113281846110ba565b905092915050565b600080fd5b6000601f19601f8301169050919050565b7f4e487b7100000000000000000000000000000000000000000000000000000000600052604160045260246000fd5b6111888261113f565b810181811067ffffffffffffffff821117156111a7576111a6611150565b5b80604052505050565b60006111ba610f62565b90506111c6828261117f565b919050565b600067ffffffffffffffff8211156111e6576111e5611150565b5b6111ef8261113f565b9050602081019050919050565b82818337600083830152505050565b600061121e611219846111cb565b6111b0565b90508281526020810184848401111561123a5761123961113a565b5b6112458482856111fc565b509392505050565b600082601f83011261126257611261610f76565b5b813561127284826020860161120b565b91505092915050565b60006020828403121561129157611290610f6c565b5b600082013567ffffffffffffffff8111156112af576112ae610f71565b5b6112bb8482850161124d565b91505092915050565b600081519050919050565b600082825260208201905092915050565b60005b838110156112fe5780820151818401526020810190506112e3565b60008484015250505050565b6000611315826112c4565b61131f81856112cf565b935061132f8185602086016112e0565b6113388161113f565b840191505092915050565b600082825260208201905092915050565b600061135f82611028565b6113698185611343565b935061137483611044565b8060005b838110156113a557815161138c8882611095565b9750611397836110ad565b925050600181019050611378565b5085935050505092915050565b600060c08301600083015184820360008601526113cf828261130a565b915050602083015184820360208601526113e9828261130a565b91505060408301518482036040860152611403828261130a565b9150506060830151848203606086015261141d828261130a565b91505060808301518482036080860152611437828261130a565b91505060a083015184820360a08601526114518282611354565b9150508091505092915050565b6000602082019050818103600083015261147881846113b2565b905092915050565b60008115159050919050565b61149581611480565b82525050565b60006020820190506114b0600083018461148c565b92915050565b6114bf81611074565b81146114ca57600080fd5b50565b6000813590506114dc816114b6565b92915050565b600080604083850312156114f9576114f8610f6c565b5b6000611507858286016114cd565b925050602083013567ffffffffffffffff81111561152857611527610f71565b5b6115348582860161124d565b9150509250929050565b60008060008060008060008060008060a08b8d03121561156157611560610f6c565b5b60008b013567ffffffffffffffff81111561157f5761157e610f71565b5b61158b8d828e01610f85565b9a509a505060208b013567ffffffffffffffff8111156115ae576115ad610f71565b5b6115ba8d828e01610f85565b985098505060408b013567ffffffffffffffff8111156115dd576115dc610f71565b5b6115e98d828e01610f85565b965096505060608b013567ffffffffffffffff81111561160c5761160b610f71565b5b6116188d828e01610f85565b945094505060808b013567ffffffffffffffff81111561163b5761163a610f71565b5b6116478d828e01610f85565b92509250509295989b9194979a5092959850565b600081519050919050565b600082825260208201905092915050565b6000819050602082019050919050565b600060c08301600083015184820360008601526116a4828261130a565b915050602083015184820360208601526116be828261130a565b915050604083015184820360408601526116d8828261130a565b915050606083015184820360608601526116f2828261130a565b9150506080830151848203608086015261170c828261130a565b91505060a083015184820360a08601526117268282611354565b9150508091505092915050565b600061173f8383611687565b905092915050565b6000602082019050919050565b600061175f8261165b565b6117698185611666565b93508360208202850161177b85611677565b8060005b858110156117b757848403895281516117988582611733565b94506117a383611747565b925060208a0199505060018101905061177f565b50829750879550505050505092915050565b600060208201905081810360008301526117e38184611754565b905092915050565b600081905092915050565b600061180283856117eb565b935061180f8385846111fc565b82840190509392505050565b60006118288284866117f6565b91508190509392505050565b600061183f826112c4565b61184981856117eb565b93506118598185602086016112e0565b80840191505092915050565b60006118718284611834565b915081905092915050565b7f4e487b7100000000000000000000000000000000000000000000000000000000600052602260045260246000fd5b600060028204905060018216806118c357607f821691505b6020821081036118d6576118d561187c565b5b50919050565b60008190508160005260206000209050919050565b60006020601f8301049050919050565b600082821b905092915050565b60006008830261193e7fffffffffffffffffffffffffffffffffffffffffffffffffffffffffffffffff82611901565b6119488683611901565b95508019841693508086168417925050509392505050565b6000819050919050565b6000819050919050565b600061198f61198a61198584611960565b61196a565b611960565b9050919050565b6000819050919050565b6119a983611974565b6119bd6119b582611996565b84845461190e565b825550505050565b600090565b6119d26119c5565b6119dd8184846119a0565b505050565b5b81811015611a01576119f66000826119ca565b6001810190506119e3565b5050565b601f821115611a4657611a17816118dc565b611a20846118f1565b81016020851015611a2f578190505b611a43611a3b856118f1565b8301826119e2565b50505b505050565b600082821c905092915050565b6000611a6960001984600802611a4b565b1980831691505092915050565b6000611a828383611a58565b9150826002028217905092915050565b611a9b826112c4565b67ffffffffffffffff811115611ab457611ab3611150565b5b611abe82546118ab565b611ac9828285611a05565b600060209050601f831160018114611afc5760008415611aea578287015190505b611af48582611a76565b865550611b5c565b601f198416611b0a866118dc565b60005b82811015611b3257848901518255600182019150602085019450602081019050611b0d565b86831015611b4f5784890151611b4b601f891682611a58565b8355505b6001600288020188555050505b505050505050565b600082905092915050565b611b798383611b64565b67ffffffffffffffff811115611b9257611b91611150565b5b611b9c82546118ab565b611ba7828285611a05565b6000601f831160018114611bd65760008415611bc4578287013590505b611bce8582611a76565b865550611c36565b601f198416611be4866118dc565b60005b82811015611c0c57848901358255600182019150602085019450602081019050611be7565b86831015611c295784890135611c25601f891682611a58565b8355505b6001600288020188555050505b50505050505050565b7f4e487b7100000000000000000000000000000000000000000000000000000000600052603260045260246000fd5b60008154611c7b816118ab565b611c8581866117eb565b94506001821660008114611ca05760018114611cb557611ce8565b60ff1983168652811515820286019350611ce8565b611cbe856118dc565b60005b83811015611ce057815481890152600182019150602081019050611cc1565b838801955050505b50505092915050565b6000611cfd8284611c6e565b915081905092915050565b7f4e487b7100000000000000000000000000000000000000000000000000000000600052601160045260246000fd5b6000611d4282611960565b91507fffffffffffffffffffffffffffffffffffffffffffffffffffffffffffffffff8203611d7457611d73611d08565b5b60018201905091905056fea2646970667358221220e0fab7bb13a10cb9b87d8b14c22d6753d75f0174b3b9f81a5dc23e1ce7c79f8664736f6c63430008110033",
  "linkReferences": {},
  "deployedLinkReferences": {}
}